:020000040800F2
:1000000000000220FD0400084D0500084D05000811
:100010004D0500084D0500084D05000800000000D2
:100020000000000000000000000000004D05000876
:100030004D050008000000004D0500084D050008B2
:100040004D0500084D0500084D0500084D05000848
:100050004D0500084D0500084D0500084D05000838
:100060004D0500084D0500084D0500084D05000828
:100070004D0500084D0500084D0500084D05000818
:100080004D0500084D0500084D0500084D05000808
:100090004D0500084D0500084D0500084D050008F8
:1000A0004D0500084D0500084D0500084D050008E8
:1000B0004D0500084D0500084D0500084D050008D8
:1000C0004D0500084D0500084D0500084D050008C8
:1000D0004D0500084D0500084D0500084D050008B8
:1000E0004D0500084D0500084D0500084D050008A8
:1000F0004D0500084D0500084D0500084D05000898
:100100004D0500084D0500084D0500084D05000887
:100110004D0500084D0500084D0500084D05000877
:100120004D0500084D0500084D0500084D05000867
:100130004D0500084D0500084D0500084D05000857
:100140004D0500084D0500084D0500084D05000847
:100150004D0500084D0500084D0500084D05000837
:100160004D0500084D0500084D0500084D05000827
:100170004D0500084D0500084D0500084D05000817
:100180004D0500084D0500084D0500084D05000807
:100190004D050008000000004D0500084D05000851
:1001A0004D0500084D0500084D0500084D050008E7
:1001B0004D0500084D0500084D0500084D050008D7
:1001C0004D0500084D0500084D0500084D050008C7
:0801D0004D0500084D05000873
:1001D8000348044B834202D0034B03B118477047CE
:1001E8000000002000000020000000000548064B29
:1001F8001B1AD90F01EBA301491002D0034B03B11D
:100208001847704700000020000000200000000090
:1002180010B5064C237843B9FFF7DAFF044B13B146
:100228000448AFF300800123237010BD00000020B4
:1002380000000000A805000808B5044B1BB10449DC
:100248000448AFF30080BDE80840CFE70000000095
:1002580004000020A8050008084B9A689207FCD5FE
:10026800074A4FF080519161D8609968C907FCD559
:10027800DB684FF480539361704700BF003800403B
:100288000004004810B50C46FFF7E6FF44F4807000
:10029800BDE81040FFF7E0BF38B50D461446FFF73C
:1002A800DBFF45F48070FFF7D7FF44F48070BDE8AA
:1002B8003840FFF7D1BF00002049CB6C43F0020360
:1002C800CB641F4B1A6822F07F421A601A6842F00A
:1002D80019421A605A6A22F0704222F470025A6275
:1002E8005A6A42F0A04242F4A0025A629A6942F065
:1002F80080429A618A6D42F480428A65114A116887
:1003080041F4477141F003011160516841F4006103
:100318005160516821F4E06151604FF48051996156
:10032800116841F0400111604FF4FA7200BF013AC0
:10033800FCD19A6942F480429A61704700100240E9
:100348000004004800380040634BDA6C42F00202B7
:1003580030B5DA64DA6C42F00402DA645F4B1A688A
:1003680022F00C0242F004021A601A6822F4404299
:1003780042F480421A601A6822F440121A60DA685D
:1003880042F48012DA601A6822F030021A60DA68E1
:1003980042F01002DA60D3F8002422F44072C3F865
:1003A8000024D3F80C2442F48072C3F80C24D3F848
:1003B800002422F44062C3F80024D3F80C2442F449
:1003C8008062C3F80C24D3F8002422F04062C3F8FA
:1003D8000024D3F80C24ADF5005D89B042F08062AA
:1003E800C3F80C246846FFF767FF4FF4005200215A
:1003F8000DF11E0000F0CCF81221FD20FFF742FF9E
:10040800AE20FFF729FF9121B320FFF73BFF3F21E3
:10041800CA20FFF737FF0021A220FFF733FF002192
:10042800A120FFF72FFF11220221A020FFF734FFA0
:100438000121AB20FFF726FFFD22A021B420FFF702
:100448002BFFAF21C120FFF71DFF0F21C720FFF7AA
:1004580019FFB920FFF700FFE221B120FFF712FFD3
:100468002022A221D120FFF717FF1F21BB20FFF771
:1004780009FF0821B620FFF705FF0721BE20FFF777
:1004880001FFA620FFF7E8FEA920FFF7E5FEAF2051
:10049800FFF7E2FE4FF47A7300BF013BFCD15B2209
:1004A8001C211520FFF7F8FE3F2200217520FFF7D9
:1004B800F3FE5C20FFF7D0FE0DF11D0542F20104AA
:1004C800013CA4B2002CEAD015F8010F40F480706A
:1004D800FFF7C2FEF4E700BF001002400004004826
:1004E800034AD2F8883043F47003C2F88830704762
:1004F80000ED00E00D4885460D480E490E4A0023E0
:1005080002E0D458C4500433C4188C42F9D30B4ABF
:100518000B4C002301E013600432A242FBD3FFF727
:10052800DFFF00F011F8FFF70FFFFEE700000220E1
:100538000000002000000020D00500080000002076
:100548001C000020FEE7000070B50D4D0D4C641B2B
:10055800A4100026A64209D10B4D0C4C00F020F83F
:10056800641BA4100026A64205D170BD55F8043BB3
:1005780098470136EEE755F8043B98470136F2E70D
:10058800C8050008C8050008C8050008CC0500080B
:1005980002440346934200D1704703F8011BF9E770
:1005A800F8B500BFF8BC08BC9E467047F8B500BF58
:0805B800F8BC08BC9E46704728
:0805C000A0FCFF7F0100000018
:0405C80041020008E4
:0405CC001902000808
:04000005080004FDEE
:00000001FF
