:020000040800F2
:100000000000022035060008850600088506000865
:100010008506000885060008850600080000000027
:10002000000000000000000000000000850600083D
:100030008506000800000000850600088506000807
:100040008506000885060008850600088506000864
:100050008506000885060008850600088506000854
:100060008506000885060008850600088506000844
:100070008506000885060008850600088506000834
:100080008506000885060008850600088506000824
:100090008506000885060008850600088506000814
:1000A0008506000885060008850600088506000804
:1000B00085060008850600088506000885060008F4
:1000C00085060008850600088506000885060008E4
:1000D00085060008850600088506000885060008D4
:1000E00085060008850600088506000885060008C4
:1000F00085060008850600088506000885060008B4
:1001000085060008850600088506000885060008A3
:100110008506000885060008850600088506000893
:100120008506000885060008850600088506000883
:100130008506000885060008850600088506000873
:100140008506000885060008850600088506000863
:100150008506000885060008850600088506000853
:100160008506000885060008850600088506000843
:100170008506000885060008850600088506000833
:100180008506000885060008850600088506000823
:1001900085060008000000008506000885060008A6
:1001A0008506000885060008850600088506000803
:1001B00085060008850600088506000885060008F3
:1001C00085060008850600088506000885060008E3
:0801D000850600088506000801
:1001D8000348044B834202D0034B03B118477047CE
:1001E8000400002004000020000000000548064B21
:1001F8001B1AD90F01EBA301491002D0034B03B11D
:100208001847704704000020040000200000000088
:1002180010B5064C237843B9FFF7DAFF044B13B146
:100228000448AFF300800123237010BD04000020B0
:1002380000000000D006000808B5044B1BB10449B3
:100248000448AFF30080BDE80840CFE70000000095
:1002580008000020D0060008084B9A689207FCD5D1
:10026800074A4FF080519161D8609968C907FCD559
:10027800D8684FF48053936180B2704700380040CB
:100288000004004840F48070FFF7E6BF10B50C4644
:10029800FFF7E2FF2046BDE81040FFF7F3BF38B58F
:1002A8000D461446FFF7D8FF2846FFF7EBFF204618
:1002B800BDE83840FFF7E6BFC74AD36C43F00203F6
:1002C8002DE9F041D364C54B196821F00C0141F0C8
:1002D80004011960196821F440111960D96841F4C2
:1002E8008011D960D16C41F00201D164196821F004
:1002F8007F411960196841F019411960596A21F064
:10030800704121F470015962596A41F0A04141F4E9
:10031800A0015962996941F080419961916D41F458
:1003280080419165A2F5EC32B8B0116841F447718B
:1003380041F003011160516841F400615160516856
:1003480021F4E06151604FF480519961116841F0E6
:10035800400111604FF4FA7400BF013CFCD19A6966
:1003680042F480429A611221FD20FFF78FFFAE20F0
:10037800FFF772FF9121B320FFF788FF3F21CA20C2
:10038800FFF784FF2146A220FFF780FF2146A12026
:10039800FFF77CFF11220221A020FFF780FF012137
:1003A800AB20FFF773FFFD22A021B420FFF777FFF2
:1003B800AF21C120FFF76AFF0F21C720FFF766FFB3
:1003C800B920FFF749FFE221B120FFF75FFF2022A4
:1003D800A221D120FFF763FF1F21BB20FFF756FFA3
:1003E8000821B620FFF752FF0721BE20FFF74EFF76
:1003F800A620FFF731FFA920FFF72EFFAF20FFF758
:100408002BFF4FF47A7400BF013CFCD15B221C2106
:100418001520FFF744FF3F2221467520FFF73FFFD5
:100428005C206F4FFFF718FF3D466878FFF72AFFFB
:10043800013415F8020BFFF725FFB4F5805FF4D1FE
:10044800684C0FCC6D460FC594E80F0004F11006F8
:1004580085E80F000FCE08AD0FC596E80F0004F130
:10046800300685E80F000FCE10AD0FC596E80F00D7
:1004780004F1500685E80F000FCE18AD0FC596E8B9
:100488000F0004F1700685E80F000FCE20AD0FC5F0
:1004980096E80F0004F1900685E80F000FCE28AD0E
:1004A8000FC596E80F00B03485E80F000FCC30ADCB
:1004B8000FC594E80F0085E80F0028A930AC0A465C
:1004C8000023106854F8045B01336840082B42F895
:1004D800040BF6D1424B6C46002254F8040BA3F8E7
:1004E800FA040132050C082AA3F8FC54A3F180038E
:1004F800F3D13B4B08AC002254F8040BA3F8F604E4
:100508000132050C082AA3F8F854A3F18003F3D1AB
:10051800334B10AC002254F8040BA3F8F204013258
:10052800050C082AA3F8F454A3F18003F3D12C4B4B
:1005380018AC002254F8040BA3F8EE040132050CA1
:10054800082AA3F8F054A3F18003F3D1244B20AC7C
:10055800002254F8040BA3F8EA040132050C082A17
:10056800A3F8EC54A3F18003F3D11D4B002251F8FA
:10057800040BA3F8E6040132040C082AA3F8E844A3
:10058800A3F18003F3D1154C174D636943F00203BF
:10059800636100232A689A4237D800232A689A425E
:1005A80036D82369114A13F4806F4FF01C0142F2C8
:1005B80010734FF0150018BF13465B222B60FFF72E
:1005C8006EFE3F2200217520FFF769FE5C20FFF7D1
:1005D80043FEB84600260BE0001002400004004825
:1005E80020000020E80600080000002020A10700E5
:1005F80098F80100FFF746FE013618F8020BFFF7DE
:1006080041FEB6F5805FF3D1BFE700BF0133C1E714
:1006180000BF0133C2E700BF034AD2F8883043F471
:100628007003C2F88830704700ED00E00D48854639
:100638000D480E490E4A002302E0D458C450043332
:10064800C4188C42F9D30B4A0B4C002301E0136009
:100658000432A242FBD3FFF7DFFF00F011F8FFF7E7
:100668002BFEFEE70000022000000020040000200E
:10067800D80700080400002020200020FEE7000022
:1006880070B50D4D0D4C641BA4100026A64209D16F
:100698000B4D0C4C00F018F8641BA4100026A64261
:1006A80005D170BD55F8043B98470136EEE755F87B
:1006B800043B98470136F2E7D0070008D007000846
:1006C800D0070008D4070008F8B500BFF8BC08BC7C
:1006D8009E467047F8B500BFF8BC08BC9E467047F8
:1006E800000000000000FFFF00F000F000F000F044
:1006F8000000FFFF0000F0F000000FF000F000F035
:100708000000000000F0FFFF000000F0000000F013
:1007180000F0FFFF000000F0000000F000F0FFFF15
:10072800000000000000FF0F00F000F0000000F0E3
:10073800000000F000F00FF000F000F00000FF0FE4
:1007480000000000000000000000FF000000FF00A3
:10075800000000000000FF000000FF000000000093
:10076800000000000000FF0F0000F0000000F00093
:100778000000F0000000F0000000F0000000FF0F93
:10078800000000000000FFFF00F000F000F000F0A3
:100798000000FFFF000000F0000000F0000000F083
:1007A800FFFFFFFFFFFFFFFFFFFFFFFFFFFFFFFF51
:1007B800FFFFFFFFFFFFFFFFFFFFFFFFFFFFFFFF41
:0807C80098FAFF7F0100000018
:0407D00041020008DA
:0407D40019020008FE
:0407D80050C300000A
:0400000508000635B4
:00000001FF
