:020000040800F2
:100000000000022089070008D9070008D907000866
:10001000D9070008D9070008D90700080000000028
:10002000000000000000000000000000D9070008E8
:10003000D907000800000000D9070008D907000808
:10004000D9070008D9070008D9070008D907000810
:10005000D9070008D9070008D9070008D907000800
:10006000D9070008D9070008D9070008D9070008F0
:10007000D9070008D9070008D9070008D9070008E0
:10008000D9070008D9070008D9070008D9070008D0
:10009000D9070008D9070008D9070008D9070008C0
:1000A000D9070008D9070008D9070008D9070008B0
:1000B000D9070008D9070008D9070008D9070008A0
:1000C000D9070008D9070008D9070008D907000890
:1000D000D9070008D9070008D9070008D907000880
:1000E000D9070008D9070008D9070008D907000870
:1000F000D9070008D9070008D9070008D907000860
:10010000D9070008D9070008D9070008D90700084F
:10011000D9070008D9070008D9070008D90700083F
:10012000D9070008D9070008D9070008D90700082F
:10013000D9070008D9070008D9070008D90700081F
:10014000D9070008D9070008D9070008D90700080F
:10015000D9070008D9070008D9070008D9070008FF
:10016000D9070008D9070008D9070008D9070008EF
:10017000D9070008D9070008D9070008D9070008DF
:10018000D9070008D9070008D9070008D9070008CF
:10019000D907000800000000D9070008D9070008A7
:1001A000D9070008D9070008D9070008D9070008AF
:1001B000D9070008D9070008D9070008D90700089F
:1001C000D9070008D9070008D9070008D90700088F
:0801D000D9070008D907000857
:1001D8000348044B834202D0034B03B118477047CE
:1001E8008C0000208C000020000000000548064B11
:1001F8001B1AD90F01EBA301491002D0034B03B11D
:10020800184770478C0000208C0000200000000078
:1002180010B5064C237843B9FFF7DAFF044B13B146
:100228000448AFF300800123237010BD8C00002028
:10023800000000001C09000808B5044B1BB1044964
:100248000448AFF30080BDE80840CFE70000000095
:10025800900000201C09000870470000084B9A68AD
:100268009207FCD5074A4FF080519161D860996890
:10027800C907FCD5DB684FF480539361704700BF12
:10028800003800400004004810B50C46FFF7E6FFB0
:1002980044F48070BDE81040FFF7E0BF38B50D4664
:1002A8001446FFF7DBFF45F48070FFF7D7FF44F4EF
:1002B8008070BDE83840FFF7D1BF2DE9F0479DF8C1
:1002C80020909DF8248000249C4216D204FB021C36
:1002D800002608EB040E0AE0457907681CF801AB14
:1002E8006D0837440EFB0595013605F807A0F5B2F1
:1002F800AA42F1D80134E4B2E6E7BDE8F08700008D
:1003080073B543719DF818301C4E83719DF81C30ED
:10031800C37101259DF820300160027103723146D6
:10032800CDE90055062303220446FFF7C6FF042340
:10033800009331462046019506230322FFF7BDFFAF
:100348000723009331462046019506230322FFF731
:10035800B4FF0A2300933146204601950623032261
:10036800FFF7ABFF0D2300932046019506230322D8
:100378003146FFF7A2FF204602B070BD34090008DD
:100388002049CB6C43F00203CB641F4B1A6822F060
:100398007F421A601A6842F019421A605A6A22F0BB
:1003A800704222F470025A625A6A42F0A04242F441
:1003B800A0025A629A6942F080429A618A6D42F4B8
:1003C80080428A65114A116841F4477141F003017E
:1003D8001160516841F400615160516821F4E06195
:1003E80051604FF480519961116841F040011160EA
:1003F8004FF4FA7200BF013AFCD19A6942F4804284
:100408009A6170470010024000040048003800401C
:100418002DE9F74F06464FF0000C16F8043F0193FC
:1004280000F50059019A1FFA8CF39A4202D803B0DA
:10043800BDE8F08F56F8043F4FF0000E9A795FFA46
:100448008EF7BA4238D80CF1010CEBE707FB02F43F
:100458001A6899F81A8093F808B0018B2A4402EBBD
:10046800640207FB085492F801A0DA7904EB5202FF
:1004780001390BFB08228A1A024482F81AA093F861
:1004880005A01A6893F807B007FB0AFA02EB6A029C
:1004980093F808A0525D04EB5B040AFB084401349E
:1004A800091B014402358A765A79E9B2B1EB520F39
:1004B800CCD30EF1010EC1E70025F5E7714BDA6CDC
:1004C80042F0020210B5DA64DA6C42F00402DA642F
:1004D8006D4B1A6822F00C0242F004021A601A6886
:1004E80022F4404242F480421A601A6822F4401210
:1004F8001A60DA6842F48012DA601A6822F0300270
:100508001A60DA6842F01002DA60D3F8002422F4A4
:100518004072C3F80024D3F80C2442F48072C3F864
:100528000C24D3F8002422F44062C3F80024D3F842
:100538000C2442F48062C3F80C24D3F8002422F07F
:100548004062C3F80024D3F80C24ADF5005D88B0F0
:1005580042F08062C3F80C246846FFF711FF0423B9
:100568004FF4005200210DF11E008DF80830ADF84F
:100578001C2000F065F90DF58153802283F8FE2FC9
:10058800402283F8FF2F414B0393414B0493414B87
:1005980005931221404B0693FD20CDF804D0FFF7B8
:1005A80073FEAE20FFF75AFE9121B320FFF76CFED1
:1005B8003F21CA20FFF768FE0021A220FFF764FE52
:1005C8000021A120FFF760FE11220221A020FFF7E1
:1005D80065FE0121AB20FFF757FEFD22A021B420C4
:1005E800FFF75CFEAF21C120FFF74EFE0F21C720A9
:1005F800FFF74AFEB920FFF731FEE221B120FFF7ED
:1006080043FE2022A221D120FFF748FE1F21BB2054
:10061800FFF73AFE0821B620FFF736FE0721BE2075
:10062800FFF732FEA620FFF719FEA920FFF716FEF6
:10063800AF20FFF713FE4FF47A7300BF013BFCD1E4
:1006480001A8FFF7E5FE5B221C211520FFF726FE17
:100658003F2200217520FFF721FE5C20FFF7FEFDF9
:100668000024BDF81C20A3B29A42E9D908AB13FABA
:1006780084F3013413F8020C40F48070FFF7EEFDA8
:10068800EFE700BF0010024000040048CC00002043
:10069800C0000020B4000020A80000202DE9F04F81
:1006A8004FF0000885B0CDE90188274E274F284D27
:1006B800284C2949DFF8A490DFF8A4B04FF0080AC5
:1006C800CDF800A0327820233846FFF719FE2A46D5
:1006D80021463846202700F07CF8CDE90187CDF87F
:1006E80000A03278102349465846FFF709FE2A46EB
:1006F8002146584600F06DF8CDF808804FF04008C4
:10070800CDE900A8DFF85CB03278DFF85CA03B46A2
:1007180049465846FFF7F4FD2A462146584600F058
:1007280058F8CDE9018704230093327849463B46BF
:100738005046FFF7E5FD2A462146504605B0BDE87C
:10074800F04F00F046B800BF84000020CC00002025
:100758000000002061020008D800002004000020EA
:10076800C0000020B4000020A8000020034AD2F8EE
:10077800883043F47003C2F88830704700ED00E019
:100788000D4885460D480E490E4A002302E0D4580C
:10079800C4500433C4188C42F9D30B4A0B4C0023C1
:1007A80001E013600432A242FBD3FFF7DFFF00F041
:1007B80023F8FFF783FEFEE7000002200000002078
:1007C8008C000020600900088C000020F402002042
:1007D800FEE70B460146184600F000B810B504467F
:1007E8000448134620B10A460220214600F030F89A
:1007F80010BD00BF5908000870B50D4D0D4C641BA5
:10080800A4100026A64209D10B4D0C4C00F082F82A
:10081800641BA4100026A64205D170BD55F8043B00
:1008280098470136EEE755F8043B98470136F2E75A
:100838005409000854090008540900085C09000814
:1008480002440346934200D1704703F8011BF9E7BD
:100858002DE9F843284D0746286891460E469846E4
:1008680000F054F8254A14683CB9254B1360254A12
:1008780012B11268C3F88820214C63681F2B06DD6B
:10088800286800F045F84FF0FF30BDE8F88347B31B
:10089800D4F8880080B91C4B1BB9286800F037F8D9
:1008A800F1E74FF48470AFF300800028F5D00023FF
:1008B800C0E94033C4F88800636840F823900122F7
:1008C8009A4000EB8301D0F800311343C0F800319F
:1008D800022FC1F8808002BFD0F804311343C0F85A
:1008E8000431636828685A1C0233626044F8236044
:1008F80000F00EF80020C8E788000020EC02002075
:100908006002002048090008000000007047704796
:1009180070470000F8B500BFF8BC08BC9E46704799
:0C092800F8B500BFF8BC08BC9E46704744
:1009340004F400400040F00FF0F0F0F04F004004E9
:08094400F4000000580100203E
:08094C0014F9FF7F0100000017
:0809540041020008A50600089D
:04095C001902000874
:1009600000000000FFFFFFFFFFFFFFFFFFFFFFFF93
:10097000FFFFFFFFFFFFFFFFFFFFFFFFFFFFFFFF87
:10098000FFFFFFFFFFFFFFFFFFFFFFFFFFFFFFFF77
:10099000FFFFFFFFFFFFFFFFFFFFFFFFFFFFFFFF67
:1009A000FFFFFFFFFFFFFFFFFFFFFFFFFFFFFFFF57
:1009B000FFFFFFFFFFFFFFFFFFFFFFFFFFFFFFFF47
:1009C000FFFFFFFFFFFFFFFFFFFFFFFFFFFFFFFF37
:1009D000FFFFFFFFFFFFFFFFFFFFFFFFFFFFFFFF27
:0C09E000FFFFFFFF80000000F00200207D
:04000005080007895F
:00000001FF
