:020000040800F2
:1000000000000220CD0400081D0500081D050008A1
:100010001D0500081D0500081D0500080000000062
:100020000000000000000000000000001D050008A6
:100030001D050008000000001D0500081D05000842
:100040001D0500081D0500081D0500081D05000808
:100050001D0500081D0500081D0500081D050008F8
:100060001D0500081D0500081D0500081D050008E8
:100070001D0500081D0500081D0500081D050008D8
:100080001D0500081D0500081D0500081D050008C8
:100090001D0500081D0500081D0500081D050008B8
:1000A0001D0500081D0500081D0500081D050008A8
:1000B0001D0500081D0500081D0500081D05000898
:1000C0001D0500081D0500081D0500081D05000888
:1000D0001D0500081D0500081D0500081D05000878
:1000E0001D0500081D0500081D0500081D05000868
:1000F0001D0500081D0500081D0500081D05000858
:100100001D0500081D0500081D0500081D05000847
:100110001D0500081D0500081D0500081D05000837
:100120001D0500081D0500081D0500081D05000827
:100130001D0500081D0500081D0500081D05000817
:100140001D0500081D0500081D0500081D05000807
:100150001D0500081D0500081D0500081D050008F7
:100160001D0500081D0500081D0500081D050008E7
:100170001D0500081D0500081D0500081D050008D7
:100180001D0500081D0500081D0500081D050008C7
:100190001D050008000000001D0500081D050008E1
:1001A0001D0500081D0500081D0500081D050008A7
:1001B0001D0500081D0500081D0500081D05000897
:1001C0001D0500081D0500081D0500081D05000887
:0801D0001D0500081D050008D3
:1001D8000348044B834202D0034B03B118477047CE
:1001E8000000002000000020000000000548064B29
:1001F8001B1AD90F01EBA301491002D0034B03B11D
:100208001847704700000020000000200000000090
:1002180010B5064C237843B9FFF7DAFF044B13B146
:100228000448AFF300800123237010BD00000020B4
:10023800000000006805000808B5044B1BB104491C
:100248000448AFF30080BDE80840CFE70000000095
:100258000400002068050008084B9A689207FCD53E
:10026800074A4FF080519161D8609968C907FCD559
:10027800DB684FF480539361704700BF003800403B
:100288000004004810B50C46FFF7E6FF44F4807000
:10029800BDE81040FFF7E0BF38B50D461446FFF73C
:1002A800DBFF45F48070FFF7D7FF44F48070BDE8AA
:1002B8003840FFF7D1BF00002049CB6C43F0020360
:1002C800CB641F4B1A6822F07F421A601A6842F00A
:1002D80019421A605A6A22F0704222F470025A6275
:1002E8005A6A42F0A04242F4A0025A629A6942F065
:1002F80080429A618A6D42F480428A65114A116887
:1003080041F4477141F003011160516841F4006103
:100318005160516821F4E06151604FF48051996156
:10032800116841F0400111604FF4FA7200BF013AC0
:10033800FCD19A6942F480429A61704700100240E9
:100348000004004800380040574B07B5DA6C42F00B
:100358000202DA64DA6C42F00402DA64534B1A6877
:1003680022F00C0242F004021A601A6822F4404299
:1003780042F480421A601A6822F440121A60DA685D
:1003880042F48012DA601A6822F030021A60DA68E1
:1003980042F01002DA60D3F8002422F44072C3F865
:1003A8000024D3F80C2442F48072C3F80C24D3F848
:1003B800002422F44062C3F80024D3F80C2442F449
:1003C8008062C3F80C24D3F8002422F04062C3F8FA
:1003D8000024D3F80C2442F08062C3F80C2401A84E
:1003E800FFF76AFF1221FD20FFF74CFFAE20FFF751
:1003F80033FF9121B320FFF745FF3F21CA20FFF7C4
:1004080041FF0021A220FFF73DFF0021A120FFF7B7
:1004180039FF11220221A020FFF73EFF0121AB2066
:10042800FFF730FFFD22A021B420FFF735FFAF21F1
:10043800C120FFF727FF0F21C720FFF723FFB920AF
:10044800FFF70AFFE221B120FFF71CFF2022A221BB
:10045800D120FFF721FF1F21BB20FFF713FF082141
:10046800B620FFF70FFF0721BE20FFF70BFFA620DE
:10047800FFF7F2FEA920FFF7EFFEAF20FFF7ECFE33
:100488004FF47A7300BF013BFCD15B221C2115207D
:10049800FFF702FF3F2200217520FFF7FDFE5C20D9
:1004A800FFF7DAFEF1E700BF001002400004004841
:1004B800034AD2F8883043F47003C2F88830704792
:1004C80000ED00E00D4885460D480E490E4A002310
:1004D80002E0D458C4500433C4188C42F9D30B4AF0
:1004E8000B4C002301E013600432A242FBD3FFF758
:1004F800DFFF00F011F8FFF727FFFEE700000220FA
:1005080000000020000000209005000800000020E6
:100518001C000020FEE7000070B50D4D0D4C641B5B
:10052800A4100026A64209D10B4D0C4C00F018F877
:10053800641BA4100026A64205D170BD55F8043BE3
:1005480098470136EEE755F8043B98470136F2E73D
:100558008805000888050008880500088C0500083B
:10056800F8B500BFF8BC08BC9E467047F8B500BF98
:08057800F8BC08BC9E46704768
:08058000E0FCFF7F0100000018
:040588004102000824
:04058C001902000848
:04000005080004CD1E
:00000001FF
