:020000040800F2
:100000000000022029060008790600087906000889
:10001000790600087906000879060008000000004B
:100020000000000000000000000000007906000849
:10003000790600080000000079060008790600082B
:100040007906000879060008790600087906000894
:100050007906000879060008790600087906000884
:100060007906000879060008790600087906000874
:100070007906000879060008790600087906000864
:100080007906000879060008790600087906000854
:100090007906000879060008790600087906000844
:1000A0007906000879060008790600087906000834
:1000B0007906000879060008790600087906000824
:1000C0007906000879060008790600087906000814
:1000D0007906000879060008790600087906000804
:1000E00079060008790600087906000879060008F4
:1000F00079060008790600087906000879060008E4
:1001000079060008790600087906000879060008D3
:1001100079060008790600087906000879060008C3
:1001200079060008790600087906000879060008B3
:1001300079060008790600087906000879060008A3
:100140007906000879060008790600087906000893
:100150007906000879060008790600087906000883
:100160007906000879060008790600087906000873
:100170007906000879060008790600087906000863
:100180007906000879060008790600087906000853
:1001900079060008000000007906000879060008CA
:1001A0007906000879060008790600087906000833
:1001B0007906000879060008790600087906000823
:1001C0007906000879060008790600087906000813
:0801D000790600087906000819
:1001D8000348044B834202D0034B03B118477047CE
:1001E8008C0000208C000020000000000548064B11
:1001F8001B1AD90F01EBA301491002D0034B03B11D
:10020800184770478C0000208C0000200000000078
:1002180010B5064C237843B9FFF7DAFF044B13B146
:100228000448AFF300800123237010BD8C00002028
:1002380000000000BC07000808B5044B1BB10449C6
:100248000448AFF30080BDE80840CFE70000000095
:1002580090000020BC07000870470000084B9A680F
:100268009207FCD5074A4FF080519161D860996890
:10027800C907FCD5DB684FF480539361704700BF12
:10028800003800400004004810B50C46FFF7E6FFB0
:1002980044F48070BDE81040FFF7E0BF38B50D4664
:1002A8001446FFF7DBFF45F48070FFF7D7FF44F4EF
:1002B8008070BDE83840FFF7D1BF00002049CB6C03
:1002C80043F00203CB641F4B1A6822F07F421A6086
:1002D8001A6842F019421A605A6A22F0704222F4EF
:1002E80070025A625A6A42F0A04242F4A0025A626C
:1002F8009A6942F080429A618A6D42F480428A6526
:10030800114A116841F4477141F0030111605168C5
:1003180041F400615160516821F4E06151604FF48B
:1003280080519961116841F0400111604FF4FA72EF
:1003380000BF013AFCD19A6942F480429A61704741
:100348000010024000040048003800407E4BDA6C80
:1003580042F002022DE9F047DA64DA6C42F0040256
:10036800DA647A4B1A6822F00C0242F004021A602E
:100378001A6822F4404242F480421A601A6822F451
:1003880040121A60DA6842F48012DA601A6822F0C1
:1003980030021A60DA6842F01002DA60D3F80024FA
:1003A80022F44072C3F80024D3F80C2442F480727B
:1003B800C3F80C24D3F8002422F44062C3F80024C4
:1003C800D3F80C2442F48062C3F80C24D3F8002438
:1003D80022F04062C3F80024D3F80C24ADF5005D88
:1003E80088B042F08062C3F80C246846FFF766FFC5
:1003F8004FF4005200210DF11E0000F071F9544B2A
:100408000393544B0493544B05931221534B069377
:10041800FD20FFF739FFAE20FFF720FF9121B32021
:10042800FFF732FF3F21CA20FFF72EFF0021A2204D
:10043800FFF72AFF0021A120FFF726FF1122022142
:10044800A020FFF72BFF0121AB20FFF71DFFFD22A6
:10045800A021B420FFF722FFAF21C120FFF714FF2E
:100468000F21C720FFF710FFB920FFF7F7FEE221A1
:10047800B120FFF709FF2022A221D120FFF70EFFAC
:100488001F21BB20FFF700FF0821B620FFF7FCFE65
:100498000721BE20FFF7F8FEA620FFF7DFFEA92000
:1004A800FFF7DCFEAF20FFF7D9FE4FF47A7300BFE9
:1004B800013BFCD1802502AF052441F6FF7C4FF0BB
:1004C800FF0E013CA4B2DCB95B221C211520FFF70A
:1004D800E5FE21463F227520FFF7E0FE5C20FFF78E
:1004E800BDFE0DF11D0642F20104013CA4B2002C30
:1004F800E1D016F8010F40F48070FFF7AFFEF4E783
:1005080057F8040F90F806900021CBB29945D8D936
:1005180046794FEAC1187608002210E0C37990F8AE
:1005280008A05B0815FB0A3A08EB02035344ACEB3E
:1005380003030DF1200A5344013203F802ECD3B24D
:100548009E42EBD80131E0E7001002400004004869
:10055800CC000020C0000020B4000020A80000202B
:100568002DE9F047DFF8A080204E214D2148224F89
:1005780098F80030076020244FF0080A4FF000096F
:100588003246294603714471A0F806A080F8089005
:1005980000F06FF8194898F800300760324629468D
:1005A80003714471A0F806A0047200F062F81448C0
:1005B80098F80030076044F2080A32462946037169
:1005C8004471A0F806A080F8089000F052F80D4891
:1005D80098F8003003714471A0F806A0047207600F
:1005E80032462946BDE8F04700F043B80000002035
:1005F80061020008CC00002004000020C000002098
:10060800B4000020A800002084000020034AD2F88B
:10061800883043F47003C2F88830704700ED00E07A
:100628000D4885460D480E490E4A002302E0D4586D
:10063800C4500433C4188C42F9D30B4A0B4C002322
:1006480001E013600432A242FBD3FFF7DFFF00F0A2
:1006580023F8FFF77BFEFEE70000022000000020E1
:100668008C000020EC0700088C0000207402002099
:10067800FEE70B460146184600F000B810B50446E0
:100688000448134620B10A460220214600F030F8FB
:1006980010BD00BFF906000870B50D4D0D4C641B68
:1006A800A4100026A64209D10B4D0C4C00F082F88C
:1006B800641BA4100026A64205D170BD55F8043B62
:1006C80098470136EEE755F8043B98470136F2E7BC
:1006D800E0070008E0070008E0070008E80700084E
:1006E80002440346934200D1704703F8011BF9E71F
:1006F8002DE9F843284D0746286891460E46984646
:1007080000F054F8254A14683CB9254B1360254A73
:1007180012B11268C3F88820214C63681F2B06DDCC
:10072800286800F045F84FF0FF30BDE8F88347B37C
:10073800D4F8880080B91C4B1BB9286800F037F83A
:10074800F1E74FF48470AFF300800028F5D0002360
:10075800C0E94033C4F88800636840F82390012258
:100768009A4000EB8301D0F800311343C0F8003100
:10077800022FC1F8808002BFD0F804311343C0F8BB
:100788000431636828685A1C0233626044F82360A5
:1007980000F00EF80020C8E7880000206C02002056
:1007A800E0010020D40700080000000070477047EF
:1007B80070470000F8B500BFF8BC08BC9E467047FB
:0C07C800F8B500BFF8BC08BC9E467047A6
:0407D400D800002029
:0807D80088FAFF7F0100000018
:0807E000410200086905000850
:0407E80019020008EA
:1007EC0000000000FF0000000000000000000000FE
:1007FC0000000000000000000000000000000000ED
:10080C0000000000000000000000000000000000DC
:10081C0000000000000000000000000000000000CC
:10082C0000000000000000000000000000000000BC
:10083C0000000000000000000000000000000000AC
:10084C00000000000000000000000000000000009C
:10085C00000000000000000000000000000000008C
:0C086C000000000080000000700200206E
:0400000508000629C0
:00000001FF
