:020000040800F2
:10000000000002202D0600087D0600087D0600087D
:100010007D0600087D0600087D060008000000003F
:100020000000000000000000000000007D06000845
:100030007D060008000000007D0600087D0600081F
:100040007D0600087D0600087D0600087D06000884
:100050007D0600087D0600087D0600087D06000874
:100060007D0600087D0600087D0600087D06000864
:100070007D0600087D0600087D0600087D06000854
:100080007D0600087D0600087D0600087D06000844
:100090007D0600087D0600087D0600087D06000834
:1000A0007D0600087D0600087D0600087D06000824
:1000B0007D0600087D0600087D0600087D06000814
:1000C0007D0600087D0600087D0600087D06000804
:1000D0007D0600087D0600087D0600087D060008F4
:1000E0007D0600087D0600087D0600087D060008E4
:1000F0007D0600087D0600087D0600087D060008D4
:100100007D0600087D0600087D0600087D060008C3
:100110007D0600087D0600087D0600087D060008B3
:100120007D0600087D0600087D0600087D060008A3
:100130007D0600087D0600087D0600087D06000893
:100140007D0600087D0600087D0600087D06000883
:100150007D0600087D0600087D0600087D06000873
:100160007D0600087D0600087D0600087D06000863
:100170007D0600087D0600087D0600087D06000853
:100180007D0600087D0600087D0600087D06000843
:100190007D060008000000007D0600087D060008BE
:1001A0007D0600087D0600087D0600087D06000823
:1001B0007D0600087D0600087D0600087D06000813
:1001C0007D0600087D0600087D0600087D06000803
:0801D0007D0600087D06000811
:1001D8000348044B834202D0034B03B118477047CE
:1001E8008C0000208C000020000000000548064B11
:1001F8001B1AD90F01EBA301491002D0034B03B11D
:10020800184770478C0000208C0000200000000078
:1002180010B5064C237843B9FFF7DAFF044B13B146
:100228000448AFF300800123237010BD8C00002028
:1002380000000000C007000808B5044B1BB10449C2
:100248000448AFF30080BDE80840CFE70000000095
:1002580090000020C007000870470000084B9A680B
:100268009207FCD5074A4FF080519161D860996890
:10027800C907FCD5DB684FF480539361704700BF12
:10028800003800400004004810B50C46FFF7E6FFB0
:1002980044F48070BDE81040FFF7E0BF38B50D4664
:1002A8001446FFF7DBFF45F48070FFF7D7FF44F4EF
:1002B8008070BDE83840FFF7D1BF00002049CB6C03
:1002C80043F00203CB641F4B1A6822F07F421A6086
:1002D8001A6842F019421A605A6A22F0704222F4EF
:1002E80070025A625A6A42F0A04242F4A0025A626C
:1002F8009A6942F080429A618A6D42F480428A6526
:10030800114A116841F4477141F0030111605168C5
:1003180041F400615160516821F4E06151604FF48B
:1003280080519961116841F0400111604FF4FA72EF
:1003380000BF013AFCD19A6942F480429A61704741
:100348000010024000040048003800407E4BDA6C80
:1003580042F002022DE9F043DA64DA6C42F004025A
:10036800DA647A4B1A6822F00C0242F004021A602E
:100378001A6822F4404242F480421A601A6822F451
:1003880040121A60DA6842F48012DA601A6822F0C1
:1003980030021A60DA6842F01002DA60D3F80024FA
:1003A80022F44072C3F80024D3F80C2442F480727B
:1003B800C3F80C24D3F8002422F44062C3F80024C4
:1003C800D3F80C2442F48062C3F80C24D3F8002438
:1003D80022F04062C3F80024D3F80C24ADF5005D88
:1003E80089B042F08062C3F80C246846FFF766FFC4
:1003F8004FF4005200210DF11E0000F073F9544B28
:100408000393544B0493544B05931221534B069377
:10041800FD20FFF739FFAE20FFF720FF9121B32021
:10042800FFF732FF3F21CA20FFF72EFF0021A2204D
:10043800FFF72AFF0021A120FFF726FF1122022142
:10044800A020FFF72BFF0121AB20FFF71DFFFD22A6
:10045800A021B420FFF722FFAF21C120FFF714FF2E
:100468000F21C720FFF710FFB920FFF7F7FEE221A1
:10047800B120FFF709FF2022A221D120FFF70EFFAC
:100488001F21BB20FFF700FF0821B620FFF7FCFE65
:100498000721BE20FFF7F8FEA620FFF7DFFEA92000
:1004A800FFF7DCFEAF20FFF7D9FE4FF47A7300BFE9
:1004B800013BFCD180250DF1080C052441F6FF7E97
:1004C800013CA4B2DCB95B221C211520FFF7E6FE33
:1004D80021463F227520FFF7E1FE5C20FFF7BEFEB4
:1004E8000DF11D0642F20104013CA4B2002CE2D039
:1004F80016F8010F40F48070FFF7B0FEF4E75CF8DF
:10050800042F92F806900020C3B29945D8D956799D
:100518004FEAC0187608002110E0D379177A5B08F3
:1005280015FB073708EB01033B44AEEB030308AFA9
:100538003B4417683F7803F8027C0131CBB29E42F6
:10054800EBD80130E0E700BF00100240000400488B
:10055800CC000020C0000020B4000020A80000202B
:100568002DE9F047DFF8A480214E224D2248234F81
:1005780098F80030076020244FF0080A4FF000096F
:100588003246294603714471A0F806A080F8089005
:1005980000F071F81A4898F80030037132461023B9
:1005A800294607604371A0F806A0047200F063F8BA
:1005B800144898F800300371324644F2080329467B
:1005C80007604471C38080F8089000F054F80E4822
:1005D80098F80030037144F204034471C380047234
:1005E800076032462946BDE8F04700F044B800BF2E
:1005F8000000002061020008CC0000200400002058
:10060800C0000020B4000020A800002084000020C2
:10061800034AD2F8883043F47003C2F88830704730
:1006280000ED00E00D4885460D480E490E4A0023AE
:1006380002E0D458C4500433C4188C42F9D30B4A8E
:100648000B4C002301E013600432A242FBD3FFF7F6
:10065800DFFF00F023F8FFF779FEFEE70000022035
:10066800000000208C000020F00700088C0000200B
:1006780074020020FEE70B460146184600F000B859
:1006880010B504460448134620B10A460220214604
:1006980000F030F810BD00BFFD06000870B50D4D24
:1006A8000D4C641BA4100026A64209D10B4D0C4C1E
:1006B80000F082F8641BA4100026A64205D170BD84
:1006C80055F8043B98470136EEE755F8043B984740
:1006D8000136F2E7E4070008E4070008E407000829
:1006E800EC07000802440346934200D1704703F820
:1006F800011BF9E72DE9F843284D0746286891467C
:100708000E46984600F054F8254A14683CB9254B23
:100718001360254A12B11268C3F88820214C636817
:100728001F2B06DD286800F045F84FF0FF30BDE8C4
:10073800F88347B3D4F8880080B91C4B1BB92868E4
:1007480000F037F8F1E74FF48470AFF30080002829
:10075800F5D00023C0E94033C4F88800636840F846
:10076800239001229A4000EB8301D0F80031134313
:10077800C0F80031022FC1F8808002BFD0F80431E0
:100788001343C0F80431636828685A1C0233626056
:1007980044F8236000F00EF80020C8E78800002025
:1007A8006C020020E0010020D807000800000000CB
:1007B8007047704770470000F8B500BFF8BC08BC28
:1007C8009E467047F8B500BFF8BC08BC9E46704707
:0407D800D800002025
:0807DC0084FAFF7F0100000018
:0807E40041020008690500084C
:0407EC0019020008E6
:1007F00000000000FF0000000000000000000000FA
:1008000000000000000000000000000000000000E8
:1008100000000000000000000000000000000000D8
:1008200000000000000000000000000000000000C8
:1008300000000000000000000000000000000000B8
:1008400000000000000000000000000000000000A8
:100850000000000000000000000000000000000098
:100860000000000000000000000000000000000088
:0C0870000000000080000000700200206A
:040000050800062DBC
:00000001FF
