:020000040800F2
:1000000000000220E106000831070008310700085F
:100010003107000831070008310700080000000020
:100020000000000000000000000000003107000890
:100030003107000800000000310700083107000800
:1000400031070008310700083107000831070008B0
:1000500031070008310700083107000831070008A0
:100060003107000831070008310700083107000890
:100070003107000831070008310700083107000880
:100080003107000831070008310700083107000870
:100090003107000831070008310700083107000860
:1000A0003107000831070008310700083107000850
:1000B0003107000831070008310700083107000840
:1000C0003107000831070008310700083107000830
:1000D0003107000831070008310700083107000820
:1000E0003107000831070008310700083107000810
:1000F0003107000831070008310700083107000800
:1001000031070008310700083107000831070008EF
:1001100031070008310700083107000831070008DF
:1001200031070008310700083107000831070008CF
:1001300031070008310700083107000831070008BF
:1001400031070008310700083107000831070008AF
:10015000310700083107000831070008310700089F
:10016000310700083107000831070008310700088F
:10017000310700083107000831070008310700087F
:10018000310700083107000831070008310700086F
:10019000310700080000000031070008310700089F
:1001A000310700083107000831070008310700084F
:1001B000310700083107000831070008310700083F
:1001C000310700083107000831070008310700082F
:0801D0003107000831070008A7
:1001D8000348044B834202D0034B03B118477047CE
:1001E8000400002004000020000000000548064B21
:1001F8001B1AD90F01EBA301491002D0034B03B11D
:100208001847704704000020040000200000000088
:1002180010B5064C237843B9FFF7DAFF044B13B146
:100228000448AFF300800123237010BD04000020B0
:10023800000000007C07000808B5044B1BB1044906
:100248000448AFF30080BDE80840CFE70000000095
:10025800080000207C070008084B9A689207FCD524
:10026800074A4FF080519161D8609968C907FCD559
:10027800D8684FF48053936180B2704700380040CB
:100288000004004840F48070FFF7E6BF10B50C4644
:10029800FFF7E2FF2046BDE81040FFF7F3BF38B58F
:1002A8000D461446FFF7D8FF2846FFF7EBFF204618
:1002B800BDE83840FFF7E6BFCD4AD36C43F00203F0
:1002C8002DE9F041D364CB4B196821F00C0141F0C2
:1002D80004011960196821F440111960D96841F4C2
:1002E8008011D960D16C41F00201D164196821F004
:1002F8007F411960196841F019411960596A21F064
:10030800704121F470015962596A41F0A04141F4E9
:10031800A0015962996941F080419961916D41F458
:1003280080419165A2F5EC32B0B0116841F4477193
:1003380041F003011160516841F400615160516856
:1003480021F4E06151604FF480519961116841F0E6
:10035800400111604FF4FA7400BF013CFCD19A6966
:1003680042F480429A611221FD20FFF78FFFAE20F0
:10037800FFF772FF9121B320FFF788FF3F21CA20C2
:10038800FFF784FF2146A220FFF780FF2146A12026
:10039800FFF77CFF11220221A020FFF780FF012137
:1003A800AB20FFF773FFFD22A021B420FFF777FFF2
:1003B800AF21C120FFF76AFF0F21C720FFF766FFB3
:1003C800B920FFF749FFE221B120FFF75FFF2022A4
:1003D800A221D120FFF763FF1F21BB20FFF756FFA3
:1003E8000821B620FFF752FF0721BE20FFF74EFF76
:1003F800A620FFF731FFA920FFF72EFFAF20FFF758
:100408002BFF4FF47A7400BF013CFCD15B221C2106
:100418001520FFF744FF3F2221467520FFF73FFFD5
:100428005C20754DFFF718FF2E467078FFF72AFFFE
:10043800013416F8020BFFF725FFB4F5805FF4D1FD
:1004480041F29F532B8095F87F3043F0F00385F8F5
:100458007F3095F88030092262F3030385F88030F5
:1004680095F80031052262F3030385F8003195F809
:100478008031012262F3030385F880314FF6FF7261
:100488004FF4207325F813200133B3F5307FF9D1E9
:1004980000234FF6FF7225F813200133402BFAD1C1
:1004A800002315F8132042F00F0205F8132003F17A
:1004B8000C0115F8112042F00F0205F8112003F184
:1004C800190115F8112042F00F0205F8112003F167
:1004D800260115F8112042F00F0205F8112003F14A
:1004E800330205EB4202517841F0F001517003F1FB
:1004F8003F0205EB420240335178B3F5207F41F0CB
:10050800F0015170CDD13D4C0FCC6E460FC694E82A
:100518000F0004F1100786E80F000FCF08AE0FC6D2
:1005280097E80F0004F1300786E80F000FCF10AEF0
:100538000FC697E80F0004F1500786E80F000FCFA9
:1005480018AE0FC697E80F0004F1700786E80F0091
:100558000FCF20AE0FC697E80F00903486E80F0043
:100568000FCC28AE0FC694E80F0086E80F00224B88
:100578006846002250F8041BA3F8FA1401320C0C48
:10058800082AA3F8FC44A3F18003F3D11A4B08A866
:10059800002250F8041BA3F8F61401320C0C082AA8
:1005A800A3F8F844A3F18003F3D1134B10A8002259
:1005B80050F8041BA3F8F21401320C0C082AA3F813
:1005C800F444A3F18003F3D10B4B18A8002250F890
:1005D800041BA3F8EE1401320C0C082AA3F8F0440B
:1005E800A3F18003F3D1044B20A8002208E000BF48
:1005F8000010024000040048200000209407000872
:1006080050F8041BA3F8EA1401320C0C082AA3F8CA
:10061800EC44A3F18003F3D1274B28A8002250F81B
:10062800041BA3F8E61401320C0C082AA3F8E844CA
:10063800A3F18003F3D1214C214E636943F00203F7
:100648006361002332689A422FD8636923F002035A
:100658006361002332689A422AD823694CF25032E7
:1006680013F4806F4FF01C0142F210734FF0150025
:1006780018BF13465B223360FFF711FE3F220021AB
:100688007520FFF70CFE5C20FFF7E6FDA846002763
:1006980098F80100FFF7F6FD013718F8020BFFF78D
:1006A800F1FDB7F5805FF3D1C7E700BF0133C9E7B4
:1006B80000BF0133CEE700BF20000020000400483F
:1006C80000000020034AD2F8883043F47003C2F8CF
:1006D8008830704700ED00E00D4885460D480E490A
:1006E8000E4A002302E0D458C4500433C4188C4284
:1006F800F9D30B4A0B4C002301E013600432A242E9
:10070800FBD3FFF7DFFF00F011F8FFF7D5FDFEE799
:1007180000000220000000200400002064080008F7
:100728000400002020200020FEE7000070B50D4DD9
:100738000D4C641BA4100026A64209D10B4D0C4C8D
:1007480000F018F8641BA4100026A64205D170BD5D
:1007580055F8043B98470136EEE755F8043B9847AF
:100768000136F2E75C0800085C0800085C0800082D
:1007780060080008F8B500BFF8BC08BC9E46704782
:0C078800F8B500BFF8BC08BC9E467047E6
:10079400000000000000FFFF00F000F000F000F097
:1007A4000000FFFF0000F0F000000FF000F000F088
:1007B4000000000000F0FFFF000000F0000000F067
:1007C40000F0FFFF000000F0000000F000F0FFFF69
:1007D400000000000000FF0F00F000F0000000F037
:1007E400000000F000F00FF000F000F00000FF0F38
:1007F40000000000000000000000FF000000FF00F7
:10080400000000000000FF000000FF0000000000E6
:10081400000000000000FF0F0000F0000000F000E6
:100824000000F0000000F0000000F0000000FF0FE6
:10083400000000000000FFFF00F000F000F000F0F6
:100844000000FFFF000000F0000000F0000000F0D6
:080854000CFAFF7F0100000017
:04085C00410200084D
:040860001902000871
:0408640050C300007D
:04000005080006E108
:00000001FF
